{
  "contractName": "Election",
  "abi": [
    {
      "constant": true,
      "inputs": [],
      "name": "candidatesCount",
      "outputs": [
        {
          "name": "",
          "type": "uint256"
        }
      ],
      "payable": false,
      "stateMutability": "view",
      "type": "function"
    },
    {
      "constant": true,
      "inputs": [
        {
          "name": "",
          "type": "uint256"
        }
      ],
      "name": "candidates",
      "outputs": [
        {
          "name": "id",
          "type": "uint256"
        },
        {
          "name": "name",
          "type": "string"
        },
        {
          "name": "voteCount",
          "type": "uint256"
        }
      ],
      "payable": false,
      "stateMutability": "view",
      "type": "function"
    },
    {
      "constant": true,
      "inputs": [
        {
          "name": "",
          "type": "address"
        }
      ],
      "name": "voters",
      "outputs": [
        {
          "name": "",
          "type": "bool"
        }
      ],
      "payable": false,
      "stateMutability": "view",
      "type": "function"
    },
    {
      "inputs": [],
      "payable": false,
      "stateMutability": "nonpayable",
      "type": "constructor"
    },
    {
      "anonymous": false,
      "inputs": [
        {
          "indexed": true,
          "name": "_candidateId",
          "type": "address"
        }
      ],
      "name": "reqCandidate",
      "type": "event"
    },
    {
      "constant": false,
      "inputs": [
        {
          "name": "_name",
          "type": "string"
        }
      ],
      "name": "addCandidate",
      "outputs": [],
      "payable": false,
      "stateMutability": "nonpayable",
      "type": "function"
    },
    {
      "constant": false,
      "inputs": [
        {
          "name": "candidateId",
          "type": "uint256"
        }
      ],
      "name": "vote",
      "outputs": [],
      "payable": false,
      "stateMutability": "nonpayable",
      "type": "function"
    }
  ],
  "bytecode": "0x608060405234801561001057600080fd5b5061005e6040805190810160405280600581526020017f43616e64310000000000000000000000000000000000000000000000000000008152506100b0640100000000026401000000009004565b6100ab6040805190810160405280600581526020017f43616e64320000000000000000000000000000000000000000000000000000008152506100b0640100000000026401000000009004565b6101d2565b6002600081548092919060010191905055506060604051908101604052806002548152602001828152602001600081525060016000600254815260200190815260200160002060008201518160000155602082015181600101908051906020019061011c92919061012d565b506040820151816002015590505050565b828054600181600116156101000203166002900490600052602060002090601f016020900481019282601f1061016e57805160ff191683800117855561019c565b8280016001018555821561019c579182015b8281111561019b578251825591602001919060010190610180565b5b5090506101a991906101ad565b5090565b6101cf91905b808211156101cb5760008160009055506001016101b3565b5090565b90565b610639806101e16000396000f3fe60806040526004361061006d576000357c0100000000000000000000000000000000000000000000000000000000900463ffffffff1680630121b93f146100725780632d35a8a2146100ad5780633477ee2e146100d8578063462e91ec1461019a578063a3ec138d14610262575b600080fd5b34801561007e57600080fd5b506100ab6004803603602081101561009557600080fd5b81019080803590602001909291905050506102cb565b005b3480156100b957600080fd5b506100c2610403565b6040518082815260200191505060405180910390f35b3480156100e457600080fd5b50610111600480360360208110156100fb57600080fd5b8101908080359060200190929190505050610409565b6040518084815260200180602001838152602001828103825284818151815260200191508051906020019080838360005b8381101561015d578082015181840152602081019050610142565b50505050905090810190601f16801561018a5780820380516001836020036101000a031916815260200191505b5094505050505060405180910390f35b3480156101a657600080fd5b50610260600480360360208110156101bd57600080fd5b81019080803590602001906401000000008111156101da57600080fd5b8201836020820111156101ec57600080fd5b8035906020019184600183028401116401000000008311171561020e57600080fd5b91908080601f016020809104026020016040519081016040528093929190818152602001838380828437600081840152601f19601f8201169050808301925050505050505091929192905050506104cb565b005b34801561026e57600080fd5b506102b16004803603602081101561028557600080fd5b81019080803573ffffffffffffffffffffffffffffffffffffffff169060200190929190505050610548565b604051808215151515815260200191505060405180910390f35b6000803373ffffffffffffffffffffffffffffffffffffffff1673ffffffffffffffffffffffffffffffffffffffff16815260200190815260200160002060009054906101000a900460ff1615151561032357600080fd5b60008111801561033557506002548111155b151561034057600080fd5b60016000803373ffffffffffffffffffffffffffffffffffffffff1673ffffffffffffffffffffffffffffffffffffffff16815260200190815260200160002060006101000a81548160ff02191690831515021790555060016000828152602001908152602001600020600201600081548092919060010191905055503373ffffffffffffffffffffffffffffffffffffffff167f71224fbc4e4afcb6055724e38cb363f5f9c9e01a1288746073ca23fe45beac9860405160405180910390a250565b60025481565b6001602052806000526040600020600091509050806000015490806001018054600181600116156101000203166002900480601f0160208091040260200160405190810160405280929190818152602001828054600181600116156101000203166002900480156104bb5780601f10610490576101008083540402835291602001916104bb565b820191906000526020600020905b81548152906001019060200180831161049e57829003601f168201915b5050505050908060020154905083565b60026000815480929190600101919050555060606040519081016040528060025481526020018281526020016000815250600160006002548152602001908152602001600020600082015181600001556020820151816001019080519060200190610537929190610568565b506040820151816002015590505050565b60006020528060005260406000206000915054906101000a900460ff1681565b828054600181600116156101000203166002900490600052602060002090601f016020900481019282601f106105a957805160ff19168380011785556105d7565b828001600101855582156105d7579182015b828111156105d65782518255916020019190600101906105bb565b5b5090506105e491906105e8565b5090565b61060a91905b808211156106065760008160009055506001016105ee565b5090565b9056fea165627a7a72305820ee7d09f26f9610f7a06c1a858a254406fe6d4d3dda64f445ee6b050e71ea3c450029",
  "source": "pragma solidity >=0.4.21 <0.6.0;\n\ncontract Election {\n\n    struct Candidate {\n        uint id;\n        string name;\n        uint voteCount;\n    }\n\n    // Store accounts that have voted\n    mapping(address => bool) public voters;\n    // Read/write candidates\n    mapping(uint => Candidate) public candidates;\n    // Store Candidates Count\n    uint public candidatesCount;\n\n    constructor () public {\n        addCandidate(\"Cand1\");\n        addCandidate(\"Cand2\");\n    }\n\n    function addCandidate (string memory _name) public {\n        candidatesCount ++;\n        candidates[candidatesCount] = Candidate(candidatesCount, _name, 0);\n    }\n\n    function vote (uint candidateId) public {\n        // require that they haven't voted before\n        require(!voters[msg.sender]);\n\n        // require a valid candidate\n        require(candidateId > 0 && candidateId <= candidatesCount);\n\n        // record that voter has voted\n        voters[msg.sender] = true;\n\n        // update candidate vote Count\n        candidates[candidateId].voteCount ++;\n\n        // Event emmitten\n        emit reqCandidate(msg.sender);\n    }\n\n    event reqCandidate (\n        // Dieses Event wird emitted und vom Backend beobachet\n        address indexed _candidateId\n    );\n}",
  "sourcePath": "/Users/alexwrede/Programmieren/blockchain/BCC/blockchain/contracts/Election.sol",
  "compiler": {
    "name": "solc",
    "version": "0.5.0+commit.1d4f565a.Emscripten.clang"
  },
  "schemaVersion": "3.0.9",
  "updatedAt": "2019-06-05T11:22:14.343Z",
  "devdoc": {
    "methods": {}
  },
  "userdoc": {
    "methods": {}
  }
}